:060000000A128A110E280D
:10000800FE00030EF2000408F3000A08F4000A12C6
:100018008A11B7280A128A11112883134530FD0066
:100028000330FE00B530FF003B3084000A128A110D
:100038008E230A128A110A128A11C9230A128A11F6
:10004800F800C501C601C701C801C901CA01CB0131
:10005800CC01CD01F501F601F70183010A128A11DD
:100068005A2A643083120313A7000030A800E8302E
:10007800A0000330A1003108A3003008A2000A1232
:100088008A11FF210A128A11831203132008B20071
:100098002108B3006430A0000030A1003108A3009B
:1000A8003008A2000A128A11FF210A128A1183124B
:1000B800031320083202A9002108031C210A330275
:1000C800AA000A128A112E210A128A118312031316
:1000D8002708CD000A30A7000030A8006430A0002F
:1000E8000030A1003108A3003008A2000A128A11CA
:1000F800FF210A128A11831203132008B200210873
:10010800B3000A30A0000030A1003108A300300875
:10011800A2000A128A11FF210A128A1183120313FC
:1001280020083202A9002108031C210A3302AA0070
:100138000A128A112E210A128A1183120313270820
:10014800CC000A30A0000030A1003108A30030081C
:10015800A2000A128A11FF210A128A1183120313BC
:100168002008CB0008000B1DBA28BB2802298312DF
:10017800031387017608031DC228C328CB283B0830
:100188008800013087008817F601F60AFF287603F1
:10019800031DCF28D028DC284D083B3E840083135C
:1001A800000888000230870088130230F600FF2814
:1001B80002307606031DE128E228EE284C083B3E73
:1001C80084008313000888000430870088170330F0
:1001D800F600FF2803307606031DF328F428FF28CD
:1001E8004B083B3E840083130008880008308700D2
:1001F8008817F601FF280B11780881008312031372
:100208000C1F072908292529770803190C290D2906
:1002180015291E08F000F1017008C9007108CA000C
:100228001C291E08F000F1017008C7007108C800F9
:100238000C137708031921292329013024290030B8
:10024800F70074088A0073088400720E8300FE0E9B
:100258007E0E090083120313AD01A81F3429352926
:100268003C29A709A809A70A0319A80AAD01AD0ADC
:10027800AA1F3F2940294929A909AA09A90A031936
:10028800AA0A0130AB002B08AD06AE01AF01270862
:1002980028040319502951298829AC01AC0A5F297F
:1002A80001300310A70DA80DFF3E031D552901308D
:1002B800AB002B08AC07A81F622963295429013019
:1002C8000310AE0DAF0DFF3E031D642928082A0256
:1002D800031D702927082902031C732974297B2907
:1002E8002708A9022808031CAA03AA022E14013011
:1002F8000310A80CA70CFF3E031D7C290130AC029B
:10030800031D8729882963292D0803198C298D291C
:100318009229AE09AF09AE0A0319AF0A2F08A8003F
:100328002E08A7000800003083120313B90000301C
:10033800B8000030B7000030B60030082F042E0493
:100348002D040319A829A929F629BA01BA0AB92935
:100358000130B5000310AD0DAE0DAF0DB00DB50BEE
:10036800AE290130B5003508BA07B01FBC29BD2930
:10037800AC290130B5000310B60DB70DB80DB90D95
:10038800B50BBF2930083402031DD4292F083302C6
:10039800031DD4292E083202031DD4292D08310249
:1003A800031CD729D829E7292D08B1022E08031CD8
:1003B8002E0FB2022F08031C2F0FB3023008031CA4
:1003C800300FB402361401300310B00CAF0CAE0C71
:1003D800AD0CFF3E031DE8290130BA02031DF529C3
:1003E800F629BD293908B0003808AF003708AE0033
:1003F8003608AD00080083120313A601A31F052ABF
:10040800062A0D2AA209A309A20A0319A30AA6010A
:10041800A60AA11F102A112A162AA009A109A00AB2
:100428000319A10A2008210403191B2A1C2A4B2A94
:10043800A501A50A2A2A01300310A00DA10DFF3E2F
:10044800031D202A0130A4002408A507A11F2D2A76
:100458002E2A1F2A21082302031D342A20082202DB
:10046800031C372A382A3E2A2008A2022108031C26
:10047800A303A30201300310A10CA00CFF3E031D2F
:100488003F2A0130A502031D4A2A4B2A2E2A260894
:1004980003194F2A502A552AA209A309A20A0319A7
:1004A800A30A2308A1002208A00008000A128A1142
:1004B8006B230A128A110A128A11AA230A128A11B4
:1004C8000A128A119D230A128A110A128A11BF235D
:1004D8000A128A110A128A1145230A128A118312F2
:1004E8000313490886000030B0000030AF00003028
:1004F800AE00FF30AD004708A0004808A100A201E7
:10050800A3010030A7000030A6000130A500F43098
:10051800A4000A128A11FD220A128A1183120313F7
:100528002308B4002208B3002108B2002008B10053
:100538000A128A1197210A128A11831203132E08AC
:10054800C6002D08C5004608B1004508B0000A12CB
:100558008A1135200A128A116E2A0A128A110E2867
:100568008312031320080139A200A20DA20D1F084F
:100578002206FB3922069F002108A3002008A200BA
:10058800230DA30CA20C22080139A400A40DA40D6C
:10059800A40D1F082406F73924069F002108A3008C
:1005A8002008A200230DA30CA20C230DA30CA20C5F
:1005B80022080139A400A40E1F082406EF392406D6
:1005C8009F002108A3002008A200230DA30CA20C61
:1005D800230DA30CA20C230DA30CA20C2208013995
:1005E800A400A40EA40D1F082406DF3924069F00CA
:1005F8000800003083120313AC000030AB00003059
:10060800AA000030A900201C0A2B0B2B222B24083F
:10061800A907250803110318013E0319142BAA077B
:10062800260803110318013E03191B2BAB072708E3
:1006380003110318013E0319222BAC070130A8004F
:100648000310A40DA50DA60DA70DA80B242B013092
:100658000310A30CA20CA10CA00CFF3E031D2C2B15
:100668002308220421042004031D3B2B3C2B072BC9
:100678002C08A3002B08A2002A08A1002908A00022
:100688000800831203139F1C4A2B4B2B4C2B6A2BFD
:1006980077080319502B512B5A2B0030A000A100CA
:1006A8000A128A11B4220A128A11632B0130A0009F
:1006B8000030A1000A128A11B4220A128A11831288
:1006C80003139F18682B692B632B9F1408000330B2
:1006D80083160317880089010330831603138500E6
:1006E80083120313850183160313860183120313F0
:1006F8008601831603138701831203138701831668
:100708000313880183120313880108007E088A00F6
:100718007F0882000A128A118A230A128A1180002D
:10072800840A04087D0603190034FF0A0319FE0A27
:100738008E2B831603138112811101158114011464
:1007480078088312031381000B1108000B118B1614
:10075800831203130C13831603130C170B178B1731
:100768000800C034F93424343034193412340234D3
:10077800F834003410348130831203139F00831639
:0C07880003139F139F121F120800FF3480
:08400000FF3FFF3FFF3FFF3FC0
:04400E00D420FF3F7C
:00000001FF
