:060000000A128A110C280F
:10000800FE00030EF6000A08F7000A128A11682893
:100018000A128A110F280A128A1118210A128A1143
:10002800F800A501A601F001F101F201F301830135
:100038000A128A11B9288312031320080139A20071
:10004800A20DA20D1F082206FB3922069F002108D7
:10005800A3002008A200230DA30CA20C220801393A
:10006800A400A40DA40DA40D1F082406F739240626
:100078009F002108A3002008A200230DA30CA20CB6
:10008800230DA30CA20C22080139A400A40E1F08FA
:100098002406EF3924069F002108A3002008A200A7
:1000A800230DA30CA20C230DA30CA20C230DA30C4F
:1000B800A20C22080139A400A40EA40D1F082406CE
:1000C800DF3924069F0008000B11831203130C1F4D
:1000D8006E286F288C2872080319732874287C28C6
:1000E8001E08F400F5017408F0007508F100832873
:1000F8001E08F400F5017408A5007508A6000C1385
:100108007208031988288A2801308B280030F200E9
:1001180077088A00760E8300FE0E7E0E0900831291
:1001280003139F1C982899289A28B828720803193D
:100138009E289F28A8280030A000A1000A128A1132
:100148001F200A128A11B1280130A0000030A10036
:100158000A128A111F200A128A11831203139F1888
:10016800B628B728B1289F1408000A128A11DC2083
:100178000A128A110A128A1103210A128A110A1212
:100188008A11F6200A128A110A128A110E210A12FD
:100198008A110A128A1193200A128A11700883128E
:1001A8000313860025088800CD280A128A110C2816
:1001B800033083160317880089010330831603135D
:1001C80085008601831203138601831603138701B2
:1001D8008312031387018316031388018312031301
:1001E80088010800831603138112811101158114F7
:1001F80001143D308312031381000B1108000B1109
:100208008B16831203130C13831603130C170B1787
:100218008B1708008130831203139F008316031382
:0A0228009F139F121F1208003D34BF
:08400000FF3FFF3FFF3FFF3FC0
:04400E00D420FF3F7C
:00000001FF
