:060000000A128A110C280F
:10000800FE00030EF0000A08F1000A128A113D28CA
:100018000A128A110F280A128A115E200A128A11FE
:10002800F20083010A128A1119280A128A112C2057
:100038000A128A110A128A115A200A128A110A12FD
:100048008A114D200A128A1128280A128A110C28AE
:100058008316031788018901831603138601831207
:100068000313860183160313870183120313870181
:1000780008000B1D4028412846280130831203132D
:1000880086060B1171088A00700E8300FE0E7E0E24
:1000980009008316031381128111011581140114BB
:1000A8003D308312031381000B1108000B118B16CE
:0600B8008B1708003D3427
:08400000FF3FFF3FFF3FFF3FC0
:04400E00D420FF3F7C
:00000001FF
